{
  "_format": "hh-sol-artifact-1",
  "contractName": "WavePortal",
  "sourceName": "contracts/WavePortal.sol",
  "abi": [
    {
      "inputs": [],
      "stateMutability": "nonpayable",
      "type": "constructor"
    },
    {
      "anonymous": false,
      "inputs": [
        {
          "indexed": true,
          "internalType": "address",
          "name": "from",
          "type": "address"
        },
        {
          "indexed": false,
          "internalType": "uint256",
          "name": "timestamp",
          "type": "uint256"
        },
        {
          "indexed": false,
          "internalType": "string",
          "name": "message",
          "type": "string"
        }
      ],
      "name": "NewWave",
      "type": "event"
    },
    {
      "inputs": [],
      "name": "get_all_waves",
      "outputs": [
        {
          "components": [
            {
              "internalType": "address",
              "name": "waver",
              "type": "address"
            },
            {
              "internalType": "string",
              "name": "message",
              "type": "string"
            },
            {
              "internalType": "uint256",
              "name": "timestamp",
              "type": "uint256"
            }
          ],
          "internalType": "struct WavePortal.Wave[]",
          "name": "",
          "type": "tuple[]"
        }
      ],
      "stateMutability": "view",
      "type": "function"
    },
    {
      "inputs": [],
      "name": "gettotalwaves",
      "outputs": [
        {
          "internalType": "uint256",
          "name": "",
          "type": "uint256"
        }
      ],
      "stateMutability": "view",
      "type": "function"
    },
    {
      "inputs": [
        {
          "internalType": "string",
          "name": "gotMessage",
          "type": "string"
        }
      ],
      "name": "wave",
      "outputs": [],
      "stateMutability": "nonpayable",
      "type": "function"
    }
  ],
  "bytecode": "0x60806040523480156200001157600080fd5b506200004160405180606001604052806025815260200162000e0e602591396200004760201b620003ae1760201c565b620001db565b620000e7816040516024016200005e919062000154565b6040516020818303038152906040527f41304fac000000000000000000000000000000000000000000000000000000007bffffffffffffffffffffffffffffffffffffffffffffffffffffffff19166020820180517bffffffffffffffffffffffffffffffffffffffffffffffffffffffff8381831617835250505050620000ea60201b60201c565b50565b60008151905060006a636f6e736f6c652e6c6f679050602083016000808483855afa5050505050565b6000620001208262000178565b6200012c818562000183565b93506200013e81856020860162000194565b6200014981620001ca565b840191505092915050565b6000602082019050818103600083015262000170818462000113565b905092915050565b600081519050919050565b600082825260208201905092915050565b60005b83811015620001b457808201518184015260208101905062000197565b83811115620001c4576000848401525b50505050565b6000601f19601f8301169050919050565b610c2380620001eb6000396000f3fe608060405234801561001057600080fd5b50600436106100415760003560e01c8063449d46c014610046578063ad35e9f714610062578063fb3da18214610080575b600080fd5b610060600480360381019061005b91906106b6565b61009e565b005b61006a610212565b6040516100779190610937565b60405180910390f35b61008861025d565b604051610095919061087e565b60405180910390f35b60016000546100ad9190610a49565b6000819055506100f36040518060400160405280600d81526020017f25732068617320776176656421000000000000000000000000000000000000008152503383610447565b600160405180606001604052803373ffffffffffffffffffffffffffffffffffffffff16815260200183815260200142815250908060018154018082558091505060019003906000526020600020906003020160009091909190915060008201518160000160006101000a81548173ffffffffffffffffffffffffffffffffffffffff021916908373ffffffffffffffffffffffffffffffffffffffff16021790555060208201518160010190805190602001906101b29291906105ab565b506040820151816002015550503373ffffffffffffffffffffffffffffffffffffffff167f5f7e16dc676677766a70e9c5628aa6c54ddb8b6e5188e2ae1e1f17f1ffbea7164283604051610207929190610952565b60405180910390a250565b60006102556040518060400160405280601a81526020017f5765206861766520256420776176657320696e20746f74616c2e0000000000008152506000546104e6565b600054905090565b60606001805480602002602001604051908101604052809291908181526020016000905b828210156103a557838290600052602060002090600302016040518060600160405290816000820160009054906101000a900473ffffffffffffffffffffffffffffffffffffffff1673ffffffffffffffffffffffffffffffffffffffff1673ffffffffffffffffffffffffffffffffffffffff16815260200160018201805461030a90610b1d565b80601f016020809104026020016040519081016040528092919081815260200182805461033690610b1d565b80156103835780601f1061035857610100808354040283529160200191610383565b820191906000526020600020905b81548152906001019060200180831161036657829003601f168201915b5050505050815260200160028201548152505081526020019060010190610281565b50505050905090565b610444816040516024016103c291906108a0565b6040516020818303038152906040527f41304fac000000000000000000000000000000000000000000000000000000007bffffffffffffffffffffffffffffffffffffffffffffffffffffffff19166020820180517bffffffffffffffffffffffffffffffffffffffffffffffffffffffff8381831617835250505050610582565b50565b6104e183838360405160240161045f939291906108c2565b6040516020818303038152906040527fe0e9ad4f000000000000000000000000000000000000000000000000000000007bffffffffffffffffffffffffffffffffffffffffffffffffffffffff19166020820180517bffffffffffffffffffffffffffffffffffffffffffffffffffffffff8381831617835250505050610582565b505050565b61057e82826040516024016104fc929190610907565b6040516020818303038152906040527f9710a9d0000000000000000000000000000000000000000000000000000000007bffffffffffffffffffffffffffffffffffffffffffffffffffffffff19166020820180517bffffffffffffffffffffffffffffffffffffffffffffffffffffffff8381831617835250505050610582565b5050565b60008151905060006a636f6e736f6c652e6c6f679050602083016000808483855afa5050505050565b8280546105b790610b1d565b90600052602060002090601f0160209004810192826105d95760008555610620565b82601f106105f257805160ff1916838001178555610620565b82800160010185558215610620579182015b8281111561061f578251825591602001919060010190610604565b5b50905061062d9190610631565b5090565b5b8082111561064a576000816000905550600101610632565b5090565b600061066161065c846109b3565b610982565b90508281526020810184848401111561067957600080fd5b610684848285610adb565b509392505050565b600082601f83011261069d57600080fd5b81356106ad84826020860161064e565b91505092915050565b6000602082840312156106c857600080fd5b600082013567ffffffffffffffff8111156106e257600080fd5b6106ee8482850161068c565b91505092915050565b60006107038383610810565b905092915050565b61071481610a9f565b82525050565b61072381610a9f565b82525050565b6000610734826109f3565b61073e8185610a16565b935083602082028501610750856109e3565b8060005b8581101561078c578484038952815161076d85826106f7565b945061077883610a09565b925060208a01995050600181019050610754565b50829750879550505050505092915050565b60006107a9826109fe565b6107b38185610a27565b93506107c3818560208601610aea565b6107cc81610bdc565b840191505092915050565b60006107e2826109fe565b6107ec8185610a38565b93506107fc818560208601610aea565b61080581610bdc565b840191505092915050565b6000606083016000830151610828600086018261070b565b5060208301518482036020860152610840828261079e565b91505060408301516108556040860182610860565b508091505092915050565b61086981610ad1565b82525050565b61087881610ad1565b82525050565b600060208201905081810360008301526108988184610729565b905092915050565b600060208201905081810360008301526108ba81846107d7565b905092915050565b600060608201905081810360008301526108dc81866107d7565b90506108eb602083018561071a565b81810360408301526108fd81846107d7565b9050949350505050565b6000604082019050818103600083015261092181856107d7565b9050610930602083018461086f565b9392505050565b600060208201905061094c600083018461086f565b92915050565b6000604082019050610967600083018561086f565b818103602083015261097981846107d7565b90509392505050565b6000604051905081810181811067ffffffffffffffff821117156109a9576109a8610bad565b5b8060405250919050565b600067ffffffffffffffff8211156109ce576109cd610bad565b5b601f19601f8301169050602081019050919050565b6000819050602082019050919050565b600081519050919050565b600081519050919050565b6000602082019050919050565b600082825260208201905092915050565b600082825260208201905092915050565b600082825260208201905092915050565b6000610a5482610ad1565b9150610a5f83610ad1565b9250827fffffffffffffffffffffffffffffffffffffffffffffffffffffffffffffffff03821115610a9457610a93610b4f565b5b828201905092915050565b6000610aaa82610ab1565b9050919050565b600073ffffffffffffffffffffffffffffffffffffffff82169050919050565b6000819050919050565b82818337600083830152505050565b60005b83811015610b08578082015181840152602081019050610aed565b83811115610b17576000848401525b50505050565b60006002820490506001821680610b3557607f821691505b60208210811415610b4957610b48610b7e565b5b50919050565b7f4e487b7100000000000000000000000000000000000000000000000000000000600052601160045260246000fd5b7f4e487b7100000000000000000000000000000000000000000000000000000000600052602260045260246000fd5b7f4e487b7100000000000000000000000000000000000000000000000000000000600052604160045260246000fd5b6000601f19601f830116905091905056fea264697066735822122076c65134f30261f62e608d51bcfb78ab8972d242ad1e09612e17a404adc204e664736f6c63430008000033596f20796f2c204920616d206120636f6e747261637420616e64204920616d20736d617274",
  "linkReferences": {},
  "deployedLinkReferences": {}
}